:1000000000180020C1000000811000004510000011
:10001000451000004510000045100000451000008C
:100020004510000045100000451000008110000040
:100030008110000045100000E91F0000F11F0000C2
:10004000811000008110000081100000811000006C
:10005000811000008110000081100000811000005C
:100060003510000081100000811000008110000098
:10007000811000008110000081100000811000003C
:10008000811000008110000081100000811000002C
:10009000811000008110000081100000811000001C
:1000A0001914000081100000811000008110000070
:1000B00081100000811000008110000081100000FC
:1000C000F8B500F0E1FF0821474A484B1A60484A5A
:1000D000484B1A60484A494B1A60494B1A780A4201
:1000E00002D01A780A431A702A22464B46481A70E0
:1000F00000234649464C1A188A4203D2E558043375
:100100001560F8E70021434B434A934201D202C3F2
:10011000FBE70023414A424958589446985004331B
:10012000C02BF9D100210326FF2580248A083D4BEE
:100130009200D2180B002F003340DB009F40106864
:100140000131B84307002000984003003B4313608F
:100150002029EBD16246344B1A608A22334B1A7045
:10016000334B663A5A707C321A709E3A9979114232
:10017000FCD0102299791142FCD10C209A792C499B
:100180000240082AFAD1053A0A713D324A71203AF2
:1001900099791142FCD0402299791142FCD025492D
:1001A000254A11602021224A117014399A790A4097
:1001B0000C2AFBD1214A224B1A60224A224B1A6098
:1001C0000022224B1A60224B07321A60214A224B2E
:1001D0001A6062B601F006F800F05CFF03F0FEFC66
:1001E00001F00EFFFEE7C046300004F0348004400A
:1001F000823F0000388004400100000F3C80044032
:1002000002D0074000E0074030020020B803002081
:10021000043F0000B8030020A807002000F9FF1FDA
:100220000000000000E400E008ED00E0005006409F
:10023000004006400000011044800440C000050555
:10024000048004407FBB000014E000E018E000E000
:1002500010E000E00000202020ED00E0FFFFFFFFA5
:10026000FFFFFFFFFFFFFFFFFFFFFFFFFFFFFFFF9E
:10027000FFFFFFFFFFFFFFFFFFFFFFFFFFFFFFFF8E
:10028000FFFFFFFFFFFFFFFFFFFFFFFFFFFFFFFF7E
:10029000FFFFFFFFFFFFFFFFFFFFFFFFFFFFFFFF6E
:1002A000FFFFFFFFFFFFFFFFFFFFFFFFFFFFFFFF5E
:1002B000FFFFFFFFFFFFFFFFFFFFFFFFFFFFFFFF4E
:1002C000FFFFFFFFFFFFFFFFFFFFFFFFFFFFFFFF3E
:1002D000FFFFFFFFFFFFFFFFFFFFFFFFFFFFFFFF2E
:1002E000FFFFFFFFFFFFFFFFFFFFFFFFFFFFFFFF1E
:1002F000FFFFFFFFFFFFFFFFFFFFFFFFFFFFFFFF0E
:10030000FFFFFFFFFFFFFFFFFFFFFFFFFFFFFFFFFD
:10031000FFFFFFFFFFFFFFFFFFFFFFFFFFFFFFFFED
:10032000FFFFFFFFFFFFFFFFFFFFFFFFFFFFFFFFDD
:10033000FFFFFFFFFFFFFFFFFFFFFFFFFFFFFFFFCD
:10034000FFFFFFFFFFFFFFFFFFFFFFFFFFFFFFFFBD
:10035000FFFFFFFFFFFFFFFFFFFFFFFFFFFFFFFFAD
:10036000FFFFFFFFFFFFFFFFFFFFFFFFFFFFFFFF9D
:10037000FFFFFFFFFFFFFFFFFFFFFFFFFFFFFFFF8D
:10038000FFFFFFFFFFFFFFFFFFFFFFFFFFFFFFFF7D
:10039000FFFFFFFFFFFFFFFFFFFFFFFFFFFFFFFF6D
:1003A000FFFFFFFFFFFFFFFFFFFFFFFFFFFFFFFF5D
:1003B000FFFFFFFFFFFFFFFFFFFFFFFFFFFFFFFF4D
:1003C000FFFFFFFFFFFFFFFFFFFFFFFFFFFFFFFF3D
:1003D000FFFFFFFFFFFFFFFFFFFFFFFFFFFFFFFF2D
:1003E000FFFFFFFFFFFFFFFFFFFFFFFFFFFFFFFF1D
:1003F000FFFFFFFFFFFFFFFFFFFFFFFFFFFFFFFF0D
:10040000FFFFFFFFFFFFFFFFFFFFFFFFDEF9FFFF23
:1004100010B5064C2378002B07D1054B002B02D0DA
:10042000044800E000BF0123237010BDB803002082
:1004300000000000043F0000084B10B5002B03D063
:100440000749084800E000BF07480368002B00D1B7
:1004500010BD064B002BFBD09847F9E700000000C9
:10046000BC030020043F0000B8030020000000008F
:1004700070B50100012405002140022000F00CFEAF
:1004800069082140032000F007FEA908214004204C
:1004900000F002FE9623DB00013BFDD170BDFFFFA3
:1004A000F0B5012189B0022000F028FE01210320CF
:1004B00000F024FE0121042000F020FE02210D2086
:1004C00000F01CFE02210E2000F018FE02210F2079
:1004D00000F014FE0025A0236B43254A0026D31804
:1004E00000932B000D33DBB2EF00019303ACBB197B
:1004F00001990522200000F0EBF814237343009AC1
:100500000136D31807CC07C306CC06C3082EEDD19D
:100510000135032DDFD1FA26164B17491868174C01
:10052000023DF6000A78002A08D022782A4205D037
:10053000134F1A683F68D21B0E2A06D81A680F7824
:10054000121A002F10D0B242ECD90E4C002120001C
:1005500000F04AFA20000C4900F070F90B49200025
:1005600000F0DEF909B0F0BD094FBA42DAD9ECE784
:10057000E0030020C4050020BB060020280700205F
:10058000A4070020D4030020C0FC9B0100004843C6
:10059000EE02000037B50025384CA0342800FFF7E4
:1005A00067FF2000A03800F0CDF8200000F0CAF866
:1005B00020000135A03000F0C5F81434082DEDD12D
:1005C000FA212F4B89001B680193019801F0EAFE84
:1005D00003F0CCFA01F03AFE03F092FA032318403C
:1005E0000500284C022823D098422BD001280FD098
:1005F000023B254A0021200000F0FEF80123224A98
:100600001900200000F0F8F801230022022128E060
:10061000030001001C4A200000F0EEF82B001A4AEB
:100620000221200000F0E8F800222B00110018E061
:1006300001000123144A200000F0DEF80123124AD1
:10064000002108E0012300220221200000F0D4F85C
:10065000002201231100200000F0CEF80123002227
:100660001900200000F0C8F8002001F0A5FA0028C9
:10067000FAD1643000F09CFD37BDC046E003002095
:10068000C4050020D4030020FF0F000070B50B4A02
:1006900040210B4800F082F80A4BA0221C00920077
:1006A000A0349D182600A03E3000143600F00CF84F
:1006B000B442F9D1A034AC42F4D170BD3002002074
:1006C000D4030020E00300200023C3747047FFFF21
:1006D00073B51E000023C374C360094B04001B687C
:1006E00082600193019B0D004360080000F0F4FC60
:1006F00043424341257426602000637476BDC046A2
:10070000C405002013B50400007C00F0E5FC0300E4
:1007100058425841637CC0B2834201D100200EE0B0
:10072000074A616813680093009B5B1AA1688B42BB
:10073000F4D36074012013680193019B636016BDBC
:10074000C405002037B50400FFF7DCFF002802D005
:100750000023E3600FE0E168002914D00B4A6568CC
:1007600013680093009B5B1B99420CD81368E060F0
:100770000193019B6360627C0120534253411B182B
:10078000E374A07401E00023A3743EBDC4050020FF
:1007900010B50368C9B21B68984710BD017042606C
:1007A0007047F8B51D004368040016000278180071
:1007B0005200433002701A0001276E326D331770F9
:1007C00089001F7006316068FFF7E2FF3100606842
:1007D000FFF7DEFF31126068FFF7DAFF290060687B
:1007E000FFF7D6FF29126068FFF7D2FF3900606873
:1007F00000F0CCFAF8BDFFFF10B514001A000D4B45
:100800009C4208D9002A03D18022002352010EE025
:1008100080235B0106E0002A06D0002CF4D0064BB2
:100820001B1B9BB2002202E0002CF1D02300FFF73B
:10083000B8FF10BDFE0F0000FF0F00008160704781
:1008400070B543680400027818005200433002700B
:100850001A0001256E326D3315701D7060680368D3
:100860001B6898472900606800F090FA2B002A0066
:100870002178606800F006FB606803685B69984750
:10088000C0B270BD70B5436804001600027818004D
:100890005200433002701A0001256E326D3315701C
:1008A0001D70606803681B689847606831000368C2
:1008B0001B6898472900606800F068FA70BD10B5A1
:1008C00080220021FFF7DEFF0A2000F071FC10BD3E
:1008D00070B50E0000210500FFF7B2FF6F23102452
:1008E00018400443220028000021FFF7CBFF4022DC
:1008F0001443280022000021FFF7C4FF3200280023
:10090000FE21FFF7BFFF052000F052FC4F22A0237D
:10091000224028001A430021FFF7B4FF70BDFFFFFB
:1009200070B50C1CFE2105008905201C01F016FE87
:10093000002807D12949201C01F024FE002803D0FB
:10094000264C01E0FE24A405A86802F061FC8B217E
:10095000061CC905201C02F09FF9011C301C01F087
:10096000D1FFFC21890501F057FEFE21890502F027
:10097000A7FA1B49061C01F0F1FD002807D119490F
:10098000301C01F0FFFD002802D0164E00E0144E8E
:1009900028000021FFF754FF6F22102302401A4362
:1009A000040000212800FFF76DFF301C01F01CFE41
:1009B000FE21C2B22800FFF765FF220028000021B7
:1009C000FFF760FF052000F0F3FB60225242144362
:1009D0002800E2B20021FFF755FF70BD00C05A4564
:1009E0000000404000007F4370B5040040680D00E7
:1009F00000F08EF82000FFF762FF002D04D02900E0
:100A00002000FFF765FF03E003492000FFF788FFA0
:100A1000024BA36070BDC04600007A4440787D015F
:100A2000002070470300403041331B780078181ACB
:100A30007047020001004032413113780978994231
:100A400004D9591C1170C318187E01E001204042DE
:100A5000704703000200403341321B7812789A42FB
:100A600002D9C318187E01E0012040427047704748
:100A70000300002210B56E331B8893420DD0040092
:100A80006D342378282B02D90123037105E05A1C09
:100A900022700122C31843331970100010BD70B5C5
:100AA00014000200030000206E321288824212D02D
:100AB0001D0029226D352878121A944202D901248A
:100AC0001C71140043331818220003F0ADF8200005
:100AD0002B781B192B7070BD43691A685B6812680C
:100AE00013420FD0084A0369914201D81F2205E042
:100AF000064A914201D8122200E002225A700222D4
:100B000003699A717047C0467F1A06003F420F0082
:100B10000200F8B5002304004032137053702C32E9
:100B200093701370537043678367D3704069642771
:100B3000016842680D682A430A602269154993706A
:100B400023000C22713360691E788619337A53436F
:100B5000CB185D68737BE0261B02F60033403B43F5
:100B60002B60230072331B78C018837C5A43C37DEB
:100B700089181B024A681E403E4316600649200041
:100B8000FFF7AAFF202322695371802223699A70FC
:100B9000F8BDC046803C0000A0860100102270B560
:100BA00003690400DD78EDB2154203D140222A40EA
:100BB00004D12BE0DA706B06F8D476E004231D40F4
:100BC0003A4B1BD0250000226D352A701A70636FD6
:100BD000934200D0984723002A784333002A02D159
:100BE000012129701A70D02221698A701B7822692C
:100BF0001371230001226C331A7053E001221A7022
:100C0000230041331D702269C02330E06021206938
:100C10008379DBB2194060290CD140398B43837151
:100C2000A36F002B06D0210040310A702200413210
:100C3000107898471023226991780B401BD001232C
:100C40001D4013D1210020006C316D300B780078ED
:100C5000984206D9581CE318087043331B78137167
:100C600000E01571D023226993701BE0C0239370BC
:100C700023691B7916E0210070310B7020219379D4
:100C80000B4321009371236941311A790B78D2B259
:100C9000272B07D805480078002803D0581CE318F4
:100CA00008701A7602222369DA7070BDC005002030
:100CB000F0B500210400334B85B01B680293029B02
:100CC000019320202269D378034257D02D4B0198FD
:100CD0001B680393039B1B1A0F2BF2D9002945D1E4
:100CE0002500713562692B780531D318187A00F028
:100CF00005FA2B7862690121D3189F7C09263800F8
:100D000000F0FCF90021380000F0C6F95023013B47
:100D1000FDD10121380000F0BFF95023013BFDD186
:100D2000013E002EEED10C2166692B78164DF3188A
:100D30001A7A64204A43AA185768E0225B7BD200E3
:100D40001B02134003433B60230072331B78F618E9
:100D5000B37C59436D18F17D6B6809020A4010435A
:100D60001860A023013BFDD10121AAE7102BA8D0D8
:100D700000209070802223699A7000E0012005B065
:100D8000F0BDC046C4050020803C0000122302696B
:100D9000F0B5D370202287B0036901919D780400DB
:100DA000154002D094329A700BE0FFF781FF0300E8
:100DB0000420002B62D023006F331D70B023226902
:100DC000937020262E4B20691A680292029DC278E9
:100DD000324048D0002202252026009222006D32A7
:100DE000127800998A4233D9621843321278216905
:100DF0000A711A6821690592059A9446CA78D2B296
:100E000017002F400AD1324208D060461A68049277
:100E1000049A121A052AF1D98F702BE01020CD7098
:100E20002169CA78D2B2024201D1324203D1802371
:100E300004208B700DE0012100980A4204D0434247
:100E400058410323181A07E00130C2B20092C5E7E7
:100E50000020019B002B02D0802322699370002385
:100E60006E3423700AE0196803910399491B042921
:100E7000ADD982708022042023699A7007B0F0BD3A
:100E8000C4050020F0B516008BB0020001930023CA
:100E90004032137001321370009202691233D37022
:100EA0002022036905009C780F00144002D0943280
:100EB0009A700AE0FFF7FCFE002800D1B4E02B0096
:100EC0006F331C70B0232A699370202294465849CE
:100ED0000B68029302982B696246DC7814400A0082
:100EE000002C06D10A680392039A121A042AF3D935
:100EF00012E001217F000F43FFB21F710227136828
:100F0000049304982B69DC783C4009D11168059161
:100F10000599091A0529F6D99C702B69802211E0E0
:100F20000222DA702B690F32DC78144003D06F3262
:100F30009A70002478E0002E06D1019980220029C1
:100F400000D120329A706FE0A822012E00D0A0229A
:100F50009A7002222B6994461B79002334492A692E
:100F60000868012E28D00690069F6446D07820405D
:100F700006D10C680794079CE41B052CF5D927E0E3
:100F800002211020D1702969CA78D2B202424AD116
:100F90000018024247D0013EF6B2012E01D1A8222C
:100FA0008A702A69272B05D81279591CEB181A76F2
:100FB000CBB2D3E71279D1E702270890089ED07808
:100FC000384007D10C680994099CA41B052CF6D95C
:100FD000907023E002211020D1702969CA78D2B222
:100FE000024209D0C8705022013AFDD1296908385F
:100FF0008A7882438A7016E01C00920614D5B022CB
:101000008A702A69272B05D81279591CEB181A7691
:10101000CBB200E01279019A002A02D080212A691D
:101020009170009A13701C0020000BB0F0BDC046F8
:10103000C405002010B50248FFF7B0FD10BDC04642
:101040003002002070B580258026ED02F6000B4CA2
:1010500023682B4201D000F0DFF92368334201D02E
:1010600000F00EF823681B0501D500F009F823688D
:10107000DB04ECD500F004F8E9E7C0463480044016
:1010800010B5FFF7DFFFFFFF0022014B1A6070472A
:10109000008104407047704710B51A2818D80C23F7
:1010A00058430C4A835810181C7D027A224205D0FE
:1010B000002901D01A710BE01A7209E043681A681E
:1010C000002902D003210A4301E002218A431A6069
:1010D00010BDC046803C000000231A280AD80C33FB
:1010E0005843054A83581018007A1B7C0340581E49
:1010F0008341DBB218007047803C0000F0B51A282D
:101100002FD80C2217004743164CE5196B682600B0
:10111000012901D0042911D1504334583018257DBC
:10112000027A20202A432275A22252001A601A68ED
:10113000042901D1024313E0824311E038592C7A8B
:10114000027DA24302758022002908D0022902D123
:101150000422FF3204E00022032901D1812252003F
:101160001A60F0BD803C000072B60C4B1A680C4B44
:1011700018680C4B1B6862B65B0104D5322393429E
:101180009B415B42C018084B9A1A084B5A43FA23FA
:101190009B005843920D10187047C04618E000E0BD
:1011A000C405002004ED00E07FBB000055550100A0
:1011B00070B50400FFF7D8FF0500002C0FD0FFF733
:1011C000D3FF074B401B984206D9013C002C06D0A8
:1011D000FA239B00ED18F2E700F01AFFEFE770BD6D
:1011E000E703000080221F4BD20510B51A60802251
:1011F000002012061A601C4B1C4918601C4B1D4A2B
:101200001960282313601C4A1C4C13601C4A13608D
:101210001C4A13601C4A13601C4A13600922226096
:101220001B4C20601B4C21601B4C23601B4C23601B
:101230001B4C22601B4C20601B4801601B490B604B
:101240001B490B601B4B1A6000F052FFFFF723FF96
:101250001420FFF7ADFF00F0D7FB8C204000FFF714
:10126000A7FF10BD00E100E004800340FFBF0000C5
:10127000088003400C80034014800340008003403A
:101280001C800340248003402C80034034800340B2
:1012900004900340089003400C90034014900340D6
:1012A0000090034004A0034008A003400CA00340AA
:1012B00014A0034000A003400223F0B50A4A0B4EDD
:1012C0001478C8272343DB00F518686008480578C0
:1012D000002D00D1403F09040F43F75001235D402A
:1012E0005C4005701470F0BD3C06002000F8FF1F44
:1012F000BC060020431E10B50020042B0ED872B689
:10130000074A99008858002807D044685B008C5031
:10131000044904885A5A121B5A5262B610BDC0467C
:10132000280600204E070020F8B572B601230825D4
:101330001E001549154C5A1EA25C2A421AD05F01A4
:101340007C589A00002C05D1CB1908305860104BFE
:10135000CB5109E03243D2005758002F0AD18B18E5
:10136000083058600B4B8B500B4A1378013B1370BD
:1013700062B608E00133062BDCD162B60022064BD0
:101380001A7000F0B7FBF8BD00F8FF1FC43D000065
:1013900088004000C8004000B2060020421E10B580
:1013A000042A30D8022380001843174BC0001B18B2
:1013B00072B6164CA05C03280BD800F0DFFF1604B1
:1013C0000207052012E0083302200FE00833042052
:1013D0000CE00F48920014580E4B002C01D1115014
:1013E00001E09858416099500CE00320A0540A0095
:1013F00008325A60C822180700D4403A0988090404
:101400000A431A6062B610BD00F8FF1FE005002015
:101410008006002094060020F7B5BA4B1C781D000A
:101420000423E4B21C421FD0B74B1B78002B18D00A
:10143000B64A1378DBB2002B05D0013BDBB2137048
:10144000002B00D100BEB24A1378DBB2002B06D0CD
:10145000013BDBB21370002B01D100F075FD00F0F1
:101460008FFB0422A74B1A700822224000D161E2B0
:10147000A84BA94F1B78DBB29C08E4001D093C195E
:10148000002D00D0E7E1206862688006000F013877
:101490000C2800D9DBE100F07BFF9C019C01DA0104
:1014A000DA01DA01DA01DA01DA01B701DA01DA0187
:1014B000DA010D001168536800229848984E0260C6
:1014C00001207360974B31602360974C89B2207084
:1014D000964C3A610193BA61A14218D8D023DB003F
:1014E000994200D3E7E081235B00994200D1C4E038
:1014F00006D8802900D1A9E0822900D1ABE0FAE02A
:101500008B4B994200D1C7E0FF33FF3318E0894B82
:10151000994200D15AE10ED888231B01994200D18B
:101520008EE08033994200D0E5E0B278764B042417
:101530001A70802508E0804B994200D1D0E07F4BA3
:10154000994200D1DBE0D6E0E300FA582A4204D009
:10155000FB185868083800F0CDFA0134182CF3D184
:1015600000242500764BE058002805D043680093FE
:1015700000F0C0FA0098F7E7714B1851714BE0503A
:10158000714BE058002805D04368009300F0B2FA90
:101590000098F7E76C4B6D4A18516D4BE0506B00AB
:1015A000D0526C4BE85C0238032807D800F0E6FE06
:1015B00002040204002200E001225A5501350434DD
:1015C000052DCFD100230124634D2B70634B64495B
:1015D000621EE3188A5C9B001A7008231A4221D00D
:1015E00000F06AFA6301002805D0FA18083050604C
:1015F0005C4AFA5003E0F8502B7801332B7000F06E
:101600005BFA0122A3001343002806D0DB00FA187E
:1016100008305060019AFA5004E0DB00F8502B7853
:101620009B182B7002210023A2001143C9007B509C
:1016300003210A438A400134BB50062CC6D1A0E0E6
:10164000314B494C1B78237003009BE0464C02232E
:101650002270627096E07F23B1880B40052B4AD838
:10166000414C9B0022706270404A9B181A780223FA
:101670001A4200D186E0207084E07F23B2881A40AD
:10168000052A38D87388002B35D1022037499200BB
:101690005218117881432CE07F23B2881A40052A22
:1016A00029D87388002B26D1022030499200521885
:1016B000117801431DE07288B1882D4B5C68002CC5
:1016C00019D01888904209D15888884206D1120A48
:1016D000032A01D1237855E01B8953E00C33EDE751
:1016E000B388002B4CD1234A1168234A1160B1788A
:1016F000224A117045E00F221C4B1A7066E000234D
:101700003FE0C04680200740BB0600203D06002089
:101710001C0700209020074000F8FF1FC80500208C
:10172000A8060020C8004000BC060020810600007A
:1017300002030000212000002122000021230000DC
:1017400028060020CC050020800600204E0700203F
:1017500094060020E0050020B206002030C80110E9
:10176000C43D000088004000B3060020C0200740B0
:10177000CC3D0000C4050020A4070020280700205D
:1017800013001C00F5889D4200D91D002E00402D3D
:1017900000D9402620003100FFF78EFDA419AD1BB3
:1017A00003D12F00402E04D010E04027AF4200D9D3
:1017B0002F0020003900FFF77FFDE419ED1B01D158
:1017C000402F03D1774B1C60774B1D800122774B54
:1017D0003CE0774B77491888884212D19B88002BD0
:1017E0000BD17549D05CC8540133072BFAD10B6873
:1017F000862B02D10F22714B1A7000210800FFF7CF
:101800005BFD6F4B236022E0664F3E68002E13D0D5
:10181000654B1C882500402C00D94025290030004C
:10182000FFF74AFD641B604BA4B21C80002C01D161
:10183000402D00D174193C60A0225D4BD200198864
:10184000914204D100225A709A785E4B1A7001229C
:10185000564B1A706AE008226068013D0838EDB204
:10186000134037D000F046F95749A8004258574B6B
:10187000002A1CD0566846501100585D083161603E
:1018800003280BD800F07AFD02040608032104E0C7
:10189000022102E0052100E0042159550821C82356
:1018A0000C4200D1403B1288120413433DE0585DC6
:1018B000032808D800F062FD3A3A0204002200E052
:1018C00001225A5532E008221440621E944102342B
:1018D0005C552BE02168090C8AB2028000291ED0D9
:1018E0003B4943804360AB005F583A4E002F01D123
:1018F000585001E0F158486037496D00F0506B5A7C
:10190000D2186A5200F0D8F8002802D0083060607F
:1019100005E0324A206013780133137006E0082393
:101920001C4201D12E4B00E0254B236008222D4B99
:101930001A7072E5012004421ED002231B49284C74
:101940000B70294B294E1A70294B1C605E609C60FD
:10195000284CDC600D241A619A61274B1C70FF2310
:10196000264C2370174C2B702270254A13709F222F
:10197000244B1A70087013E063B2002B04DA0D22B6
:101980001D4B1A7080232B700222144204D01B4975
:101990000B78DBB20B702A7010231C4200D02B7026
:1019A000F7BDC046C8050020B006002094200740BF
:1019B000A8060020212000009C0700203D060020F2
:1019C000C80040009820074080060020E005002065
:1019D00028060020CC0500204E070020B20600207B
:1019E00088004000802007403C060020E8050020D9
:1019F00000F8FF1F40060020C02007408820074055
:101A00008C2007408420074010B500F0B9FB00226D
:101A100010001B4BD100C850013259184860182AD9
:101A2000F8D180201749C0020A6802430A601A0AE6
:101A30001549D2B20A701A0C1449D2B20A70144A6B
:101A40001B0E1370FF23134A00201370124A134910
:101A50001370134A137001220A7012490870124958
:101A60000A70124A116899430B0070210B431360EE
:101A700080220F4B52041A6010220E4B1A7010BDB8
:101A800000F8FF1F348004409C200740B02007402E
:101A9000B42007408020074088200740942007405A
:101AA00010200740002107408420074018E400E090
:101AB00000E100E00821074070B572B60B4D2C68BC
:101AC000200000F073FD1D2802DD62B600200CE04E
:101AD00080231B06C3409C432C6062B648235843B6
:101AE000034B181800230360436070BDAC02002054
:101AF000C0F9FF1F10B504000E484821201A00F05D
:101B000051FC1D2814D80C4B1B78002B07D00B4B15
:101B10001B78002B03D02000FFF706FC08E072B60C
:101B200080231B06C340064A11680B43136062B64C
:101B300010BDC046C0F9FF1FB2060020BB06002042
:101B4000AC0200200B4B70B51B6805000A4C002B43
:101B500007D021883B2904D9002208489847002350
:101B6000238023883B2B03D85A1C2280034AD55458
:101B700070BDC046E40600205A0700206007002020
:101B800070B50B4C2678002E10D10123094D23701F
:101B90002968002908D04B88002B05D09B000B80BA
:101BA0000420FFF7FBFB2E600023237070BDC046AE
:101BB000D406002000070020F7B5B44E019033682A
:101BC0003500002B13D1B24B1B78002B00D1A7E1BD
:101BD0000520FFF78FFB3060002800D1A0E10488CA
:101BE000002C04D1FFF786FF3460200099E12868BB
:101BF00043889A08920082189468028804339342BA
:101C000001D2438005E0FFF775FF0520FFF772FB67
:101C100028600F23250022099E491A401D40260AEC
:101C200037000A702A001F40083A0137062A7FD879
:101C3000019A002A02D0974200D071E1220B134092
:101C4000082D07D1082B00D06AE18022924B1A7030
:101C5000924B21E0092D16D1092B00D060E1220E14
:101C60008D4B210C002A07D0902018708C4BD2B2DB
:101C70001B68002B15D152E080201870874B1B6821
:101C8000002B0ED14BE00A2D0FD10A2B00D047E1DB
:101C9000A022814B1A70834B1B68002B3FD0220E71
:101CA000210CC9B2F8B2984739E00B2D07D10B2BA4
:101CB00000D035E1B022784B1A707B4BECE70C2D4D
:101CC00007D10C2B00D02BE1C022734B1A70774B3D
:101CD00008E00D2D0ED10D2B00D021E1D0226E4B4E
:101CE0001A70734B1B68002B19D0210CC9B2F8B2C3
:101CF000984714E00E2B00D012E1E022664B1A70D8
:101D00006C4B1B68002B0AD0FE226102480E920128
:101D1000610C1140684A01438918F8B29847674B33
:101D2000220C1F70664B240E1A70664B1C70AAE0C2
:101D3000AB1EF0B2012B05D9052D6DD1F02879D954
:101D4000F72877D0F1380E2800D9E9E000F016FB2B
:101D5000080A17E8E81EE823E82D3741E84B55004C
:101D6000594B0DE0594B1A68002A52D0FE236002ED
:101D7000410E9B01600C18400843904749E0544BCA
:101D80001B68200CC0B2002B42D142E0514B1B68B3
:101D9000002B36D13DE0504B1B68002B31D14F4B0F
:101DA000F8201B68002B33D133E04D4B1B68002B10
:101DB00027D14A4BFA201B68002B29D129E0494B37
:101DC0001B68002B1DD1454BFB201B68002B1FD12E
:101DD0001FE0454B1B68002B13D1404BFC201B68B8
:101DE000002B15D115E0414B1B68002B09D13B4B53
:101DF000FE201B68002B0BD10BE03D4B1B68002B1A
:101E000001D0984705E0354B1B68002B01D0FF201F
:101E10009847214B1E7082E7042D08D1F0B2FFF7DE
:101E200091FE200CC0B2FFF78DFE200E76E06B1FF6
:101E3000022B67D8F0B2FFF785FE052D08D0200CE5
:101E4000C0B2FFF77FFE072D02D1200EFFF77AFE0A
:101E5000284B1B4A198811701A4A080A1070002270
:101E60001A800D4BF0321A70234B1B68002B03D0E5
:101E7000EF3A2248984706E0214B01201B68002BCF
:101E80004FD01E48984701204BE0C046080700206D
:101E9000BB0600205E070020580700201007002026
:101EA00018070020E806002014070020D8060020AC
:101EB000EC060020DC06002000E0FFFF5F070020AA
:101EC0005C0700205D070020F4060020E0060020EB
:101ED0000C070020F8060020C0060020CC060020D9
:101EE000F0060020D006002004070020C8060020CD
:101EF000C40600205A070020E406002060070020E6
:101F0000FC0600200F2D0BD1F72800D91AE7F02886
:101F100003D0044B1B88002B02D0F0B2FFF712FE57
:101F20000020FEBD5A070020054B5888054B1A6853
:101F3000002A03D0138852889B1AC0187047C046E5
:101F40004E0700202407002070B50E4B1C78E4B229
:101F5000002C15D10C4D2968002906D04B88032090
:101F60000B80FFF71BFA2C600AE0FFF7A5FD011EAE
:101F700003D00320FFF712FA02E00122034B1A708C
:101F800070BDC0461D070020200700201C07002050
:101F9000EFF3108072B643425841C0B27047002838
:101FA00000D062B67047FFFF10B5FFF7F1FF0C4A93
:101FB0001468002C10D063691360002B02D000223B
:101FC0009A6101E0074A1360FFF7E9FF0023200050
:101FD0006377A3689847E8E7FFF7E1FF10BDC046C5
:101FE0002C0700203007002010B5FFF7DDFF10BDE3
:101FF000024A1368013313607047C046C4050020CD
:1020000010B5FEF74DFAFEF7C5FA00F001F8FAE751
:10201000F8B52F4C2278002A58D02E4E3378002B5A
:1020200054D1013333701A420DD0FFF77DFF0028E1
:1020300001D000F0E1F8284B1B78002B03D00122DF
:1020400023789343237023789B0712D50025234BD5
:102050001B78AB420DD9224BAA00D7583B683800F9
:102060001B699847002801D03B6998470135EDB2BC
:10207000EDE70023337023785B0727D519490B68F8
:10208000002B23D0EFF30583002B1FD1EFF3108239
:1020900072B60868002803D0134C2578002D03D0B1
:1020A000002A13D162B611E00123237043690B604B
:1020B000002B01D09D6101E00C490B60002A00D18A
:1020C00062B600258368457798472570F8BDC046FD
:1020D000B00200203D070020B40300204C07002080
:1020E00040070020380700203C070020340700206C
:1020F0001B4B1C4A19781C4B082901D1002102E016
:102100000A2903D12E311160132206E00C2901D1D6
:10211000283100E03C21116012221A60134B1A781A
:10212000134B002A01D0002200E001221A60114B5B
:102130001A78114B012A01D880220CE0042A01D818
:10214000842208E0082A01D8852204E0102A01D858
:10215000862200E087221A600122084B1A7070471D
:10216000B102002008B003400CB003403F0700203C
:1021700020B00340B202002024B003403E070020FC
:1021800030B585B072B670224121154B1A70154AD0
:102190001170154A3239117080221A701A7852B2B1
:1021A000002AFBDA114B186862B6114B984201D82D
:1021B0000A23584301AC0A22210000F01EF8002334
:1021C0000C48E15C0500002905D05A008218013353
:1021D00051800A2BF5D101335B002B7005B030BD67
:1021E00000000240070002400600024008000240D2
:1021F0007F9698009E0300207047F8B506000D00FA
:10220000170000243900300000F052F90B0037337A
:10221000DBB2092901D83031CBB230002B5539005F
:1022200000F0C0F8061E01D00134EBE72B195870FE
:102230002B005A1B944206DD1A78295D19702A5525
:102240000133013CF5E72800F8BDFFFF454AF8B52A
:10225000564692464B005B0D9A444D465F464446B7
:102260005246F0B4894605000C000E000700132A00
:1022700022DC002A47DB52463B4B134198460B00B9
:1022800042461340034311D0384A394B00F0FEFF59
:102290000022002300F03CF9002805D0002C41DB8F
:1022A0004E46434600279E43380031003CBC9046D2
:1022B0009946A246AB46F8BD5246332A08DD802334
:1022C000DB009A45F2D102000B0000F0DFFFEDE7E2
:1022D000284A9446012263445242DA40934602421D
:1022E000E4D0224A224B00F0D1FF0022002300F06C
:1022F0000FF90028D8D0002C1ADB5B464E469F43CE
:1023000038003100D2E7194A194B00F0BFFF002214
:10231000002300F0FDF80028C6D0002C16DB0027B3
:102320000026C1E7802352465B0313419944B7E777
:102330005346142B12D03423524601279B1A9F4038
:102340007F19AF429B415B429944D6E76400640821
:1023500025430027002DA7D0074EA5E7133B9C4639
:10236000E144CAE701FCFFFFFFFF0F009C750088F6
:102370003CE4377EEDFBFFFF0000F0BF02B4714686
:1023800049084900095C49008E4402BC7047C046B8
:1023900003B47146490840004900095A49008E4477
:1023A00003BC7047002243088B4274D303098B425D
:1023B0005FD3030A8B4244D3030B8B4228D3030C15
:1023C0008B420DD3FF22090212BA030C8B4202D3B7
:1023D0001212090265D0030B8B4219D300E0090ADF
:1023E000C30B8B4201D3CB03C01A5241830B8B42E8
:1023F00001D38B03C01A5241430B8B4201D34B03D1
:10240000C01A5241030B8B4201D30B03C01A524135
:10241000C30A8B4201D3CB02C01A5241830A8B42BA
:1024200001D38B02C01A5241430A8B4201D34B02A3
:10243000C01A5241030A8B4201D30B02C01A524107
:10244000CDD2C3098B4201D3CB01C01A52418309BB
:102450008B4201D38B01C01A524143098B4201D3F5
:102460004B01C01A524103098B4201D30B01C01A20
:102470005241C3088B4201D3CB00C01A524183089A
:102480008B4201D38B00C01A524143088B4201D3C7
:102490004B00C01A5241411A00D201465241104627
:1024A0007047FFE701B5002000F006F802BDC04606
:1024B0000029F7D076E770477047C0468446101C65
:1024C00062468C46191C634600E0C0461FB501F009
:1024D000ADFA002801D40021C8421FBD10B501F09B
:1024E00001FA4042013010BD10B501F09FFA0028FA
:1024F00001DB002010BD012010BDC04610B501F069
:1025000095FA002801DD002010BD012010BDC04655
:1025100010B501F027FA002801DC002010BD0120D1
:1025200010BDC04610B501F01DFA002801DA0020E8
:1025300010BD012010BDC0468446081C6146FFE75F
:102540001FB500F065FB002801D40021C8421FBD63
:1025500010B500F0F1FA4042013010BD10B500F0A6
:1025600057FB002801DB002010BD012010BDC04634
:1025700010B500F04DFB002801DD002010BD01204A
:1025800010BDC04610B500F0FFFA002801DC0020A5
:1025900010BD012010BDC04610B500F0F5FA0028AE
:1025A00001DA002010BD012010BDC0461C2101230E
:1025B0001B04984201D3000C10391B0A984201D326
:1025C000000A08391B09984201D30009043902A204
:1025D000105C40187047C04604030202010101016B
:1025E00000000000000000009E2110B5C905041C79
:1025F000FFF7D2FF002803D1201C00F0E7FD10BD3B
:102600009E21201CC90500F05BFC00F0DFFD80234B
:102610001B069C466044F2E7F8B54A0243024400B8
:102620004E00C50F240E28009B09360EC90F9209D3
:102630008D4259D0A01B002800DC8DE0002E1AD15D
:10264000002A00D079E05A0704D00F221A40042A49
:1026500000D004335A0138D50134FF2C00D189E071
:1026600028009B015B0AE4B25B02E4055B0A23439A
:10267000C0071843F8BDFF2CE5D08021C9040A43E8
:102680001B2800DD89E016002021C640081A824080
:10269000511E8A4132439B1A5A0114D59B019E094F
:1026A0003000FFF783FF05388640844265DC041B59
:1026B000330020200134E340041BA640721E9641E3
:1026C00000243343BFE75A07BFD1DF082800FF2C9F
:1026D0002FD1002F00D187E08022D20313003B438B
:1026E0005B025B0AFF24BFE7A11B002949DD002E26
:1026F00029D0FF2CA7D08026F60432431B2900DD09
:102700008DE017002026CF40711A8A40511E8A4161
:102710003A439B185A01D6D50134FF2C64D00122CC
:1027200076491A405B080B4013438CE7031ECAD15D
:1027300000207B025B0AE4B296E701380028AAD0A9
:10274000FF2C9DD17FE7002A00D17CE701390029C9
:10275000DFD0FF2CD2D176E7002820D1601CC0B298
:10276000012853DD80279E1AFF0437402FD0D61A48
:102770000D0095E72800002376E7614B241A3340CB
:1027800061E700294DD1611CCEB2012E2FDDFF295A
:102790002AD09B185B080C0055E701227BE7002C30
:1027A0001BD1002B5BD0C04300280CD0FF2E7ED065
:1027B0001B2800DD92E01D002024C540201A834024
:1027C000581E83412B43D31A34000D0064E7002EBA
:1027D00000D065E700200024ABE7FF2E67D08024FF
:1027E000E40440422343E3E7FF2400233CE7002CBA
:1027F00061D1002B7ED0002A00D124E79B185A011A
:1028000000D460E73E4A0C0013401CE7002C1ED1A8
:10281000002B2FD1002A66D013000D0013E70122F0
:1028200077E7002C1FD1002B5AD0C94300290BD0C9
:10283000FF2E50D01B295FDC1F002024CF40611ADF
:102840008B40591E8B413B439B18340062E7002BA1
:102850001CD1002A4AD013000D00FF24F3E6130018
:1028600034000D00EFE6FF2E35D08024E404494209
:102870002343DFE7002A00D1E5E68027981AFF040A
:10288000074000D152E7D31A0D00DCE6FF24002AEE
:1028900000D1D8E68020DB08C003034204D0D20870
:1028A000024201D113000D00DB00FF24CBE6130030
:1028B000FF240D00C7E6002B0DD0FF24002A00D115
:1028C000C1E68021DB08C9030B42EDD0D2080A42E1
:1028D000EAD11300E8E71300FF24B4E6012372E70E
:1028E00013003400AFE60027002022E780270020F5
:1028F000FF03F1E61300A6E60123A5E7FFFFFF7D36
:10290000FFFFFFFBF0B5564644465F464D46F0B428
:1029100044024600C70F83B08846650A360EBA46A1
:102920003DD0FF2E22D00023EC00802599469B4607
:10293000ED0425437F3E43465C025800DB0F640AEA
:10294000000E984636D0FF2830D080230021E400C6
:10295000DB041C437F38301A019048464246084346
:10296000724E800030587A4013008746002D44D1C3
:1029700008239946063B9B46DDE70122FF20002401
:102980001A406402C305640AD2071C4314432000A2
:1029900003B03CBC90469946A246AB46F0BD002D24
:1029A00020D104239946033B9B46C4E7002C17D152
:1029B000022102E0002C0AD10121321A01924A467A
:1029C00043460A435A48920082587B40974620006B
:1029D000FFF7ECFD431F76309C4040420021BAE7F0
:1029E0000321B8E72800FFF7E1FD431F9D400023C6
:1029F0007630464299469B469DE70C239946093B13
:102A00009B4698E780240022E403FF20B9E70024D6
:102A1000C2468B465A465346022AAED0032A7DD080
:102A2000012A31D1012200201A400024A9E7012205
:102A3000101A1B2856DD1A4000200024A1E780232D
:102A4000DB031D424BD18023DB032B435C02640A72
:102A50003A00FF2095E76D016001854230D2019A6E
:102A60000024013A01921B220127290064006D0015
:102A7000002901DBA84201D82D1A3C43013A002A63
:102A8000F3D16A1E95412C4301987F300028CEDD9A
:102A9000620704D00F222240042A00D0043422010D
:102AA00003D5244A019814408030FE2800DD64E7F5
:102AB0000122A401640AC0B21A4062E72C00A9E70F
:102AC0002D1A1A220124CFE76B02BCD500248023E3
:102AD000DB031C436402640A4246FF2051E71C42A8
:102AE000B3D1F4E721002022C140101A8440621EB5
:102AF00094410C43620704D00F222240042A00D0E4
:102B00000434620104D5012201201A40002438E770
:102B10000122A401640A1A40002032E78023DB036B
:102B20001C436402640A5246FF202AE72C3E000040
:102B30006C3E0000FFFFFFF7430270B542004C00FF
:102B40005D0AC30F4802120E460A240EC90FFF2A5F
:102B50000FD0FF2C11D00120A24200D070BDB54291
:102B6000FCD18B420DD0002AF8D12800431E984199
:102B7000F4E70120002DF1D1EBE70120002EEDD18B
:102B8000E9E70020EAE7C0464302F0B542005D0AEB
:102B9000C30F4802440A4800120E000EC90FFF2A54
:102BA0001FD0FF2822D0002A09D16E426E41002892
:102BB0000FD1002C0DD10020002D09D005E00028F8
:102BC00001D1002C01D08B4213D05842012318436D
:102BD000F0BD002EF7D04842414101204942084350
:102BE000F6E7002DDDD002204042F1E7002CDAD0DC
:102BF000F9E78242E9DC04DBA542E6D80020A542E1
:102C0000E6D25842434101205B421843E0E7C04608
:102C10004302F0B542004C005E0AC30F4802120E98
:102C2000450A240EC90FFF2A17D0FF2C19D0002AFD
:102C30000BD170427041002C17D0002807D04842B9
:102C40004141012049420843F0BD002C13D08B4282
:102C500014D0584201231843F6E70220002EF3D186
:102C6000E3E70220002DEFD1E1E7002DE5D10020C0
:102C7000002EE9D0EDE7002DE9D1EAE7A242E8DC39
:102C800004DBAE42E5D80020AE42DDD258424341DB
:102C900001205B421843D7E7F0B557464E464546FC
:102CA0004300E0B446028846760A1F0EC40F002F88
:102CB00047D0FF2F25D0002380259A469946F6005D
:102CC000ED042E437F3F434642465D02D20F5B0038
:102CD0006D0A1B0E904640D0FF2B39D08022002079
:102CE000ED00D20415437F3BFB1842465746591C62
:102CF00062408C4607430F2F5CD86F49BF00C9590B
:102D00008F46002E45D108239A46063B9946DAE7BE
:102D1000424602282DD0032800D1C3E0012800D06C
:102D2000A2E0002500260240D4B27602ED05760A24
:102D30002E43E407264330001CBC90469946A24629
:102D4000F0BD002E1AD104239A46033B9946BAE7F8
:102D50002A00511E8A41901CC6E70120002DC3D0D5
:102D60002800FFF723FC431F76309D40434200209C
:102D7000BAE70124FF2514400026D6E73000FFF70C
:102D800015FC431F9E400023763047429A469946E1
:102D900099E70C239A46093B994694E7802600243C
:102DA000F603FF25C1E735004846B2E735002200AB
:102DB0004846AEE72904090C0800370C3604360CE7
:102DC0002C0C7943704367437443060C641836191E
:102DD000B14203D980214902884647440004000CCF
:102DE000310409188D01681E8541890E2943350C6F
:102DF000ED19AD010D43290104D5012369081D40DA
:102E000063460D4319007F31002925DD680704D092
:102E10000F202840042800D00435280103D5274975
:102E200080330D401900FE29A3DC0124AD016E0A98
:102E30001440CDB279E78020C003064207D0054296
:102E400005D128434602760A4446FF256DE706432E
:102E50007602760AFF2568E70124611A1B2905DD41
:102E600014400025002660E76346CBE72E002023B0
:102E7000CE40591A8D406B1E9D412E43730704D0DE
:102E80000F233340042B00D00436730104D50124F2
:102E900001251440002648E70124B601760A1440B3
:102EA000002542E780260124F6032E437602760AA7
:102EB0001440FF2539E7C046AC3E0000FFFFFFF796
:102EC000F8B54A024E0043024400240EC50F9B0988
:102ED000360EC90F9209FF2E00D183E00120414038
:102EE000A01BA9425CD0002800DC95E0002E1CD17C
:102EF000002A00D081E05A0704D00F221A40042A89
:102F000000D004335A013BD50134FF2C00D191E0AD
:102F100001209B015B0AE4B205405B02E4055B0A09
:102F2000ED0723432B431800F8BDFF2CE3D080218D
:102F3000C9040A431B2800DD90E016002021C6408A
:102F4000081A8240511E8A4132439B1A5A0115D5F4
:102F50009B019E093000FFF729FB0538864084421B
:102F60006CDC041B330020200134E340041BA6402A
:102F7000721E964100243343BDE70D005A07BCD1B1
:102F8000DF0801231D40FF2C33D1002F00D190E03A
:102F90008022D20313003B435B025B0AFF24BCE7A1
:102FA00000284FDD002E2ED0FF2CA4D08025ED046C
:102FB0002A431B2800DD97E016002025C640281A6A
:102FC0008240501E824132439B185A01D5D50134AC
:102FD000FF2C6DD001227B481A405B08034013434D
:102FE0000D0088E7002A00D07AE777E7031EC5D1F5
:102FF00000257B025B0AE4B28FE701380028A4D0E9
:10300000FF2C97D177E7002A00D174E70138002818
:10301000DAD0FF2CCDD16EE7002821D1601CC0B2E0
:10302000012858DD80279E1AFF0437402FD0D61A7A
:103030000D008FE701231D4000236EE7624B241A29
:10304000334058E7002851D1601CC6B2012E33DD51
:10305000FF282DD09B185B0804004CE7012274E781
:10306000002C1AD0FF2E1FD08024E40440422343BA
:103070001B2800DD96E01D002024C540201A834057
:10308000581E83412B43D31A34000D005EE7002EF7
:1030900000D05FE700250024ABE7002B44D0C043FD
:1030A0000028F0D0FF2EE3D11300FF240D0022E70B
:1030B0000D00FF24002330E7002C5DD1002B7DD0D4
:1030C000002A00D117E79B185A0100D456E73E4A60
:1030D000040013400FE7002C1ED1002B2FD1002A33
:1030E00065D013000D0006E701226DE7002C1FD10B
:1030F000002B59D0C04300280BD0FF2E4FD01B28E7
:103100005EDC1D002024C540201A8340581E8341E8
:103110002B439B18340058E7002B1CD1002A49D0C0
:1031200013000D00FF24E6E6130034000D00E2E674
:10313000FF2E34D08024E40440422343DFE7002AFA
:1031400000D1D8E68027981AFF04074000D14DE748
:10315000D31A0D00CFE6FF24002A00D1CBE6802051
:10316000DB08C003034204D0D208024201D113009D
:103170000D00DB00FF24BEE6002B10D0FF24002A48
:1031800000D1B8E68020DB08C003034203D0D20898
:10319000024200D11300DB000D00FF24ABE6130058
:1031A000FF24A8E601236EE713003400A3E60027FE
:1031B00000251EE780270025FF03E9E613009AE6B5
:1031C0000123A6E7FFFFFF7DFFFFFFFB4302590A34
:1031D0004300C20F1B0E00207E2B0EDD9D2B0DDC4D
:1031E000802000040143952B0BDC9620C31AD940A4
:1031F0000B005842002A00D118007047034BD0182A
:10320000FBE7963B99400B00F3E7C046FFFFFF7FCB
:1032100070B5041E28D0FFF7C9F99E231B1A962B00
:103220000ADC9622D21A94406202520AD8B25202A2
:10323000520AC005104370BD992B18DC9922D21A8E
:103240009440114A2240610704D00F210C40042C05
:1032500000D00432510103D50B4B1A409F231B1A97
:103260009201520AD8B2E2E700200022DFE70522ED
:103270002500121AB921D5402200C91A8A40541ECD
:10328000A2412C001443DCE7FFFFFFFBF8B55646D4
:103290005F464D464446F0B40F00FD0FAA460903B1
:1032A0007C002E005F00450F490A7F0D2943C500B1
:1032B0001803BC46400A570F640DDB0F3843D20099
:1032C0009A4500D1AAE06646A61B002E00DCFFE06E
:1032D0006346002B39D10300134300D0D9E06B07BC
:1032E00009D00F232B40042B05D02B1DAB42AD4141
:1032F0006D4249191D000B0200D482E0CA4B013413
:103300009C4200D1FEE00A005646C84BED081A4028
:103310005007640552020543120B640D002112038D
:103320000B0D1B056405120B1A436308C04CF6070E
:1033300014401C43640064083443280021003CBC52
:1033400090469946A246AB46F8BDB74B9C42C6D0C4
:1033500080231B041843382E00DDEBE01F2E00DD18
:103360001EE120239B1B9C4603006746BB409846FA
:1033700013004746F3403B436746BA40571EBA41E5
:1033800013430200F240EB1A9D42B6411D008A1A17
:103390007642911B0B0231D54A02560A002E00D10B
:1033A000B4E03000FFF702F90300083B1F2B00DDFB
:1033B000B5E020222900D21AD1409E400A009D404B
:1033C00032439C4200DDB1E01C1B631C1F2B00DD5F
:1033D000D5E0202114002800C91A8C40D8408D4027
:1033E0000443DA40681E854111002543002476E736
:1033F0004146314300D134E2310045466B0700D0ED
:103400006FE756464807ED08C9080543864B9C42BE
:1034100035D00A036405120B640D7FE76346E31A97
:103420009B46002B00DC8BE06746002F3CD07E4F94
:10343000BC4200D153E780273F0438435B46382B1A
:1034400000DCF7E00243501E82410020D2B2531943
:103450004218AB4289411D00494289180B02CDD563
:10346000714B01349C4200D13DE101206F4A6B0851
:103470000A4028401843D507054351082FE72B0081
:103480000B4300D1CBE180231B030B431A03120B28
:1034900044E7013E002E6DD1AE1AB5429B41091A98
:1034A0005B42C91A350075E70700174300D116E7DC
:1034B00001235B429C46E3445B46002B00D0E0E0E6
:1034C000AA18AA429B4109185B4259181500C5E782
:1034D000002E75D1661C7605760D012E00DCF3E01A
:1034E000AE1AB0464545BF410E1A7F42F61B370261
:1034F00000D48FE0551BAA42B641411A76428E1B7A
:103500009A464BE756460022002507E72800FFF7BA
:103510004DF820300300083B1F2B00DC49E72A0050
:103520002838824000259C4200DC4DE73F49E41AE0
:103530001140D4E60243501E8241D3B2002222E75A
:10354000002B00D0F3E0631C9C465B055B0D012B58
:1035500000DC9FE0344B9C4500D1C3E0AA18091859
:10356000AA42804140424118CD07520815434908FC
:103570006446B4E62C4B9C4200D0ECE6AFE611006A
:103580001F3CE1400C00202B00D17FE04021CB1AF2
:103590009A4015436A1E95410021254300242DE7DA
:1035A00033000700203BDF403B00202E70D0402737
:1035B000BE1BB0400243501E824113430022E2E68C
:1035C000002C4FD0184CA44500D1ABE0802424043B
:1035D00076422143382E00DDDFE01F2E00DD43E17F
:1035E0002027BC1BA1460C004F46BC40A0462C0027
:1035F0004746F4403C434F46BD406F1EBD41F1403D
:103600002C43151BAA429241411A5242891A644620
:103610009A46BFE641464546314300D0BEE6002605
:1036200000240025F2E6C046FF070000FFFF7FFFF1
:10363000FFFF0F801F2B59DC2027FF1ABC46070015
:1036400063469F405B46B9461700DF40B8464F4689
:1036500043461F4363469A40531E9A415B463A4392
:10366000D840F4E60C002C435CD0F643002E55D134
:10367000551BAA42A441411A6442091B9A4664465A
:1036800088E6964FBC4200D0D8E628E6002280E7C4
:1036900000208FE70B002B43002C00D0C2E0002B52
:1036A00000D101E10300134300D118E6AB18AB428F
:1036B000B6410918764271180A0200D409E1884A15
:1036C0001D00114064460AE6002C5BD10E002E431B
:1036D00000D08AE00100114300D1C2E001001500D2
:1036E0009A46FCE56446002100258FE620235B42D4
:1036F0009C46DC4463460700DF405B46BC46202B0B
:1037000000D1ACE040235F46DB1B98400243501ED3
:103710008241634613431A00002098E66F4CA4458B
:1037200000D057E70100150064469A46D7E5002C03
:1037300039D10C002C436ED0DB43002B1AD0674CE0
:10374000A44568D0382B00DDA4E01F2B00DDAEE0DF
:1037500020240F00E41AA740B9462F00DF40B846E6
:10376000A3464F46444627435C46A5406C1EA541F0
:10377000D9403D43AD1895429B4109185B42591809
:1037800064466BE60C002C4315D1010011437BD03D
:10379000010015009A46514CA1E50D43691E8D416B
:1037A0000021ECB22DE74D4CA44534D080242404F4
:1037B0005B422143C6E7040014434ED0ED084C079A
:1037C0002C438025C9082D03294208D0C6082E4263
:1037D00005D1D208410711430C009A463100620F0F
:1037E000C900E50011433D4C79E50600164300D1C0
:1037F00075E5AE1AB0464545BF410E1A7F42F61B2D
:10380000370200D4F4E5551BAA42B641411A76426C
:10381000891B9A4663E50100150064465FE50022B6
:1038200000257BE5002B3BD00300134315D0ED08AA
:103830004B072B438025C9082D03294207D0C40814
:103840002C4204D141070B002100D2081343C900C8
:103850005A0F1143DD00214C41E5204C3FE500208B
:1038600054E700260025D1E534000F00203CE74056
:103870003C00202E2BD04027BE1BB1400D43691EBB
:103880008D4100212C43BCE6802100260903134C06
:103890000025BBE50D43691E8D410021EDB269E7AE
:1038A000010015000D4C1AE50100150017E51C007C
:1038B0000F00203CE7403C00202B0CD04027FB1A97
:1038C00099400D43691E8D410021254352E7002197
:1038D000D4E71D0092E50021F3E7C046FF07000092
:1038E000FFFF7FFFF0B55F4656464D464446F0B4B5
:1038F0001F035C00DB0F9A46194B0E034D00C90FE6
:103900008046360B6D0D8B4691463F0B640D9D42F4
:1039100019D0134B9C421BD00123A54206D018009E
:103920003CBC90469946A246AB46F0BDBE42F6D19D
:10393000C845F4D1D34510D0002DF0D13043030059
:103940005A1E9341EBE7310001230143E7D1E0E741
:103950003A430123002AE2D1DEE70023DFE7C04635
:10396000FF070000F0B55F46444656464D46F0B4AA
:103970001F033C0B2C4F0E034D00A3465C008446F6
:10398000360B6D0DC90F9046640DDB0FBD422BD079
:10399000254FBC422ED0002D0ED13043070081466A
:1039A00078427841002C17D15F463A4314D14B46F8
:1039B0000020002B0AD006E0002C02D1584602431A
:1039C00001D099421AD00123484218433CBC90468A
:1039D0009946A246AB46F0BD0028F2D05842584165
:1039E000012240421043F1E737000743D0D00220C4
:1039F0004042EBE75F461743CDD0F8E7A542E2DC53
:103A000005DB5E45DFD808D000205E45DED24842A7
:103A10004841012340421843D8E7C445D3D8002089
:103A2000C445F4D3D2E7C046FF070000F0B55F46B7
:103A30004D4644465646F0B41C03240BA4462F4C76
:103A40000F034D005E00C90F80463F0B6D0D8B4686
:103A50009146760DDB0FA54220D0284CA64222D0FD
:103A6000002D12D1384344424441002E20D0002C76
:103A70000DD05C42634101245B421C4320003CBCEE
:103A800090469946A246AB46F0BD002E17D05B4546
:103A900019D05B465C4201231C43EFE73900022446
:103AA0000143EBD1D9E7614602241143E6D1D7E7C0
:103AB00061460A43DBD100240028DFD0E9E76146F4
:103AC0000A43E4D1E5E7B54203DD01225C42144339
:103AD000D4E7B542CDDB6745DBD809D00024674584
:103AE000CCD259464C426141012449420C43C5E7BE
:103AF000C845CED80024C845F3D3BFE7FF07000070
:103B00000B0330B5134D1A0B4B005B0DC90F00248E
:103B1000AB4211DD104CA34210DC8024640322432D
:103B20000E4CE41A1F2C0CDD0D48C31ADA401300AA
:103B30005C42002900D11C00200030BD094BCC188C
:103B4000FAE7E040084CA44663449A40130003435C
:103B5000EEE7C046FE0300001D0400003304000031
:103B600013040000FFFFFF7FEDFBFFFF70B5051E94
:103B700028D0FEF71BFD154B154A1B1AD21A1F2A17
:103B800016DD2C00134A0025D21A94405A0524034E
:103B9000240B520D002124030B0D240B1B05234382
:103BA0000D4C1205234013435B002800590870BDDB
:103BB0000B212C00081AC440954024035A05240BFD
:103BC000520DE7E700220024E4E7C0461E0400008F
:103BD0003304000013040000FFFF0F800E4B70B58C
:103BE00000251E000D4CE41AA410A54204D0AB0021
:103BF000F35898470135F8E700F078F9084B0025AD
:103C00001E00084CE41AA410A54204D0AB00F358DF
:103C100098470135F8E770BDF83E0000F83E000017
:103C2000F83E0000003F0000002310B59A4203D088
:103C3000CC5CC4540133F9E710BDFFFF348004406D
:103C4000400000001211FFFFFF02020000001310ED
:103C5000FFFFFF020200000008000000000000005B
:103C600000000000710A00009F0A0000210A000005
:103C70006F0A0000250A0000330A0000530A000002
:103C8000420000F840A0044001000000420000F89B
:103C900044A0044002000000C00000F800C004403E
:103CA00001000000000000F8049004400200000041
:103CB000000000F80890044004000000C00000F874
:103CC0001CC0044080000000C00000F810C0044088
:103CD00010000000C00000F808C00440040000000C
:103CE000C00000F80CC0044008000000800000F88C
:103CF0000CB0044008000000800000F810B0044040
:103D000010000000800000F818B0044040000000DF
:103D1000800000F81CB0044080000000800000F823
:103D200014B0044020000000C00000F804C00440AB
:103D300002000000800000F800B004400100000014
:103D4000400000F800A0044001000000400000F81E
:103D500004A0044002000000400000F80CA0044051
:103D600008000000400000F808A004400400000023
:103D7000C00000F814C0044020000000C00000F89B
:103D800018C0044040000000800000F804B0044067
:103D900002000000800000F808B0044004000000A9
:103DA000020100F850D0044010000000020100F8A9
:103DB00054D0044020000000030100F878D00440F3
:103DC000400000001519151519FFFFFF0001000044
:103DD000B30200201200000000020000DE020020FA
:103DE00095000000050309048C030020000000007A
:103DF000000300009A0300200000000001030904F2
:103E0000C602002000000000020309047403002021
:103E100000000000030309049E03002000000000CE
:103E2000000000000000000000000000562A000012
:103E30007A290000382A0000102A0000382A0000E1
:103E4000042A0000382A0000102A00007A29000005
:103E50007A290000042A0000102A0000BC2A000071
:103E6000BC2A0000BC2A00003E2A00007A2900007B
:103E70007A290000242A00000E2A0000242A0000CB
:103E8000042A0000242A00000E2A00007A290000DB
:103E90007A290000042A00000E2A0000BC2A000033
:103EA000BC2A0000BC2A0000C82A0000B42D000073
:103EB000122D0000122D0000102D0000A62D000074
:103EC000A62D00009C2D0000102D0000A62D000046
:103ED0009C2D0000A62D0000102D0000AC2D000030
:103EE000AC2D0000AC2D0000362E0000F8B5C04609
:103EF000F8BC08BC9E467047390400008D060000DF
:043F0000F8B5C0460A
:103F0400643C000000000000E80300000000000022
:103F1400006006403C3C000000000000000000007F
:103F2400000000000000000000000000000000008D
:103F3400000000000000000000000000000000007D
:103F4400000000000000000000000000000000006D
:103F5400000000000000000000000000000000005D
:103F6400000000000000000000000000000000004D
:103F7400000000000000000000000000FFFFFFFF41
:103F8400010A041201100100000040C016890473E4
:103F940002010203010018035400650065006E006D
:103FA400730079006400750069006E006F000902F7
:103FB4009500030100C032080B000202020100094F
:103FC400040000010202010005240010010524017F
:103FD40001010424020605240600010705810310DB
:103FE400004009040100020A000000070502024023
:103FF40000000705830240000009040200020103D7
:104004000000072401000125000624020101050621
:104014002402020205092403010301020105092403
:104024000302040101010509050502400000000026
:104034000525010101090584024000000000052551
:104044000101030018035400650065006E0073004D
:10405400790020004D004900440049000E0350003F
:104064006F007200740020003100040309040C0383
:10407400000000000000000000000000000000003C
:08408400000000000100000033
:00000001FF
